{
  "contractName": "ZeOTC",
  "abi": [
    {
      "inputs": [
        {
          "internalType": "address",
          "name": "zevoid_token_addr",
          "type": "address"
        }
      ],
      "stateMutability": "nonpayable",
      "type": "constructor"
    },
    {
      "anonymous": false,
      "inputs": [
        {
          "indexed": true,
          "internalType": "bytes32",
          "name": "zSwap_id",
          "type": "bytes32"
        },
        {
          "indexed": true,
          "internalType": "bytes32",
          "name": "offer_id",
          "type": "bytes32"
        },
        {
          "indexed": false,
          "internalType": "address",
          "name": "sender",
          "type": "address"
        },
        {
          "components": [
            {
              "internalType": "bytes32",
              "name": "id",
              "type": "bytes32"
            },
            {
              "internalType": "uint256",
              "name": "IERC",
              "type": "uint256"
            },
            {
              "internalType": "uint256",
              "name": "token_id",
              "type": "uint256"
            },
            {
              "internalType": "address",
              "name": "token",
              "type": "address"
            },
            {
              "internalType": "uint256",
              "name": "amount",
              "type": "uint256"
            },
            {
              "internalType": "uint256",
              "name": "created",
              "type": "uint256"
            }
          ],
          "indexed": false,
          "internalType": "struct ZeOTC.Product[]",
          "name": "tokens",
          "type": "tuple[]"
        }
      ],
      "name": "Offer_Status_Token_Approvement",
      "type": "event"
    },
    {
      "anonymous": false,
      "inputs": [
        {
          "indexed": true,
          "internalType": "bytes32",
          "name": "zSwap_id",
          "type": "bytes32"
        },
        {
          "indexed": true,
          "internalType": "bytes32",
          "name": "offer_id",
          "type": "bytes32"
        },
        {
          "indexed": false,
          "internalType": "address",
          "name": "sender",
          "type": "address"
        },
        {
          "components": [
            {
              "internalType": "bytes32",
              "name": "id",
              "type": "bytes32"
            },
            {
              "internalType": "uint256",
              "name": "IERC",
              "type": "uint256"
            },
            {
              "internalType": "uint256",
              "name": "token_id",
              "type": "uint256"
            },
            {
              "internalType": "address",
              "name": "token",
              "type": "address"
            },
            {
              "internalType": "uint256",
              "name": "amount",
              "type": "uint256"
            },
            {
              "internalType": "uint256",
              "name": "created",
              "type": "uint256"
            }
          ],
          "indexed": false,
          "internalType": "struct ZeOTC.Product",
          "name": "product",
          "type": "tuple"
        }
      ],
      "name": "Remove_Product",
      "type": "event"
    },
    {
      "stateMutability": "payable",
      "type": "fallback",
      "payable": true
    },
    {
      "stateMutability": "payable",
      "type": "receive",
      "payable": true
    },
    {
      "inputs": [
        {
          "components": [
            {
              "internalType": "bytes32",
              "name": "id",
              "type": "bytes32"
            },
            {
              "internalType": "uint256",
              "name": "IERC",
              "type": "uint256"
            },
            {
              "internalType": "uint256",
              "name": "token_id",
              "type": "uint256"
            },
            {
              "internalType": "address",
              "name": "token",
              "type": "address"
            },
            {
              "internalType": "uint256",
              "name": "amount",
              "type": "uint256"
            },
            {
              "internalType": "uint256",
              "name": "created",
              "type": "uint256"
            }
          ],
          "internalType": "struct ZeOTC.Product[]",
          "name": "productAs",
          "type": "tuple[]"
        },
        {
          "components": [
            {
              "internalType": "bytes32",
              "name": "id",
              "type": "bytes32"
            },
            {
              "internalType": "uint256",
              "name": "IERC",
              "type": "uint256"
            },
            {
              "internalType": "uint256",
              "name": "token_id",
              "type": "uint256"
            },
            {
              "internalType": "address",
              "name": "token",
              "type": "address"
            },
            {
              "internalType": "uint256",
              "name": "amount",
              "type": "uint256"
            },
            {
              "internalType": "uint256",
              "name": "created",
              "type": "uint256"
            }
          ],
          "internalType": "struct ZeOTC.Product[]",
          "name": "productBs",
          "type": "tuple[]"
        },
        {
          "internalType": "uint256",
          "name": "expiration_in_UTC",
          "type": "uint256"
        },
        {
          "internalType": "address",
          "name": "demander",
          "type": "address"
        }
      ],
      "name": "create_zeSwap",
      "outputs": [],
      "stateMutability": "payable",
      "type": "function",
      "payable": true
    },
    {
      "inputs": [
        {
          "internalType": "bytes32",
          "name": "zSwap_id",
          "type": "bytes32"
        },
        {
          "components": [
            {
              "internalType": "bytes32",
              "name": "id",
              "type": "bytes32"
            },
            {
              "internalType": "uint256",
              "name": "IERC",
              "type": "uint256"
            },
            {
              "internalType": "uint256",
              "name": "token_id",
              "type": "uint256"
            },
            {
              "internalType": "address",
              "name": "token",
              "type": "address"
            },
            {
              "internalType": "uint256",
              "name": "amount",
              "type": "uint256"
            },
            {
              "internalType": "uint256",
              "name": "created",
              "type": "uint256"
            }
          ],
          "internalType": "struct ZeOTC.Product[]",
          "name": "productAs",
          "type": "tuple[]"
        },
        {
          "components": [
            {
              "internalType": "bytes32",
              "name": "id",
              "type": "bytes32"
            },
            {
              "internalType": "uint256",
              "name": "IERC",
              "type": "uint256"
            },
            {
              "internalType": "uint256",
              "name": "token_id",
              "type": "uint256"
            },
            {
              "internalType": "address",
              "name": "token",
              "type": "address"
            },
            {
              "internalType": "uint256",
              "name": "amount",
              "type": "uint256"
            },
            {
              "internalType": "uint256",
              "name": "created",
              "type": "uint256"
            }
          ],
          "internalType": "struct ZeOTC.Product[]",
          "name": "productBs",
          "type": "tuple[]"
        }
      ],
      "name": "add_counter_offer_userB",
      "outputs": [],
      "stateMutability": "nonpayable",
      "type": "function"
    },
    {
      "inputs": [
        {
          "internalType": "bytes32",
          "name": "zSwap_id",
          "type": "bytes32"
        },
        {
          "components": [
            {
              "internalType": "bytes32",
              "name": "id",
              "type": "bytes32"
            },
            {
              "internalType": "uint256",
              "name": "IERC",
              "type": "uint256"
            },
            {
              "internalType": "uint256",
              "name": "token_id",
              "type": "uint256"
            },
            {
              "internalType": "address",
              "name": "token",
              "type": "address"
            },
            {
              "internalType": "uint256",
              "name": "amount",
              "type": "uint256"
            },
            {
              "internalType": "uint256",
              "name": "created",
              "type": "uint256"
            }
          ],
          "internalType": "struct ZeOTC.Product[]",
          "name": "productAs",
          "type": "tuple[]"
        },
        {
          "components": [
            {
              "internalType": "bytes32",
              "name": "id",
              "type": "bytes32"
            },
            {
              "internalType": "uint256",
              "name": "IERC",
              "type": "uint256"
            },
            {
              "internalType": "uint256",
              "name": "token_id",
              "type": "uint256"
            },
            {
              "internalType": "address",
              "name": "token",
              "type": "address"
            },
            {
              "internalType": "uint256",
              "name": "amount",
              "type": "uint256"
            },
            {
              "internalType": "uint256",
              "name": "created",
              "type": "uint256"
            }
          ],
          "internalType": "struct ZeOTC.Product[]",
          "name": "productBs",
          "type": "tuple[]"
        }
      ],
      "name": "add_offer_userA",
      "outputs": [],
      "stateMutability": "nonpayable",
      "type": "function"
    },
    {
      "inputs": [
        {
          "internalType": "bytes32",
          "name": "zSwap_id",
          "type": "bytes32"
        }
      ],
      "name": "accept",
      "outputs": [],
      "stateMutability": "nonpayable",
      "type": "function"
    },
    {
      "inputs": [
        {
          "internalType": "bytes32",
          "name": "zSwap_id",
          "type": "bytes32"
        },
        {
          "internalType": "bytes32",
          "name": "offer_id",
          "type": "bytes32"
        },
        {
          "internalType": "bytes32",
          "name": "product_id",
          "type": "bytes32"
        }
      ],
      "name": "remove_product",
      "outputs": [],
      "stateMutability": "nonpayable",
      "type": "function"
    },
    {
      "inputs": [
        {
          "internalType": "bytes32",
          "name": "zSwap_id",
          "type": "bytes32"
        },
        {
          "internalType": "bytes32",
          "name": "offer_id",
          "type": "bytes32"
        },
        {
          "components": [
            {
              "internalType": "bytes32",
              "name": "id",
              "type": "bytes32"
            },
            {
              "internalType": "uint256",
              "name": "IERC",
              "type": "uint256"
            },
            {
              "internalType": "uint256",
              "name": "token_id",
              "type": "uint256"
            },
            {
              "internalType": "address",
              "name": "token",
              "type": "address"
            },
            {
              "internalType": "uint256",
              "name": "amount",
              "type": "uint256"
            },
            {
              "internalType": "uint256",
              "name": "created",
              "type": "uint256"
            }
          ],
          "internalType": "struct ZeOTC.Product[]",
          "name": "new_products",
          "type": "tuple[]"
        }
      ],
      "name": "set_product",
      "outputs": [],
      "stateMutability": "nonpayable",
      "type": "function"
    },
    {
      "inputs": [
        {
          "internalType": "uint256",
          "name": "new_zeFee_in_stable",
          "type": "uint256"
        }
      ],
      "name": "set_zeFee_in_stable",
      "outputs": [],
      "stateMutability": "nonpayable",
      "type": "function"
    },
    {
      "inputs": [
        {
          "internalType": "address",
          "name": "new_zeOwner",
          "type": "address"
        }
      ],
      "name": "set_owner",
      "outputs": [],
      "stateMutability": "nonpayable",
      "type": "function"
    },
    {
      "inputs": [
        {
          "internalType": "bytes32",
          "name": "zSwap_id",
          "type": "bytes32"
        },
        {
          "internalType": "address",
          "name": "new_demander",
          "type": "address"
        }
      ],
      "name": "edit_demander_address",
      "outputs": [],
      "stateMutability": "nonpayable",
      "type": "function"
    },
    {
      "inputs": [
        {
          "internalType": "bytes32",
          "name": "zSwap_id",
          "type": "bytes32"
        }
      ],
      "name": "cancel_zSwap",
      "outputs": [],
      "stateMutability": "nonpayable",
      "type": "function"
    },
    {
      "inputs": [
        {
          "internalType": "bytes32",
          "name": "zSwap_id",
          "type": "bytes32"
        }
      ],
      "name": "end_zSwap",
      "outputs": [],
      "stateMutability": "nonpayable",
      "type": "function"
    },
    {
      "inputs": [
        {
          "internalType": "bytes32",
          "name": "zSwap_id",
          "type": "bytes32"
        },
        {
          "internalType": "uint256",
          "name": "expiration_in_UTC",
          "type": "uint256"
        }
      ],
      "name": "reset_zeSwap",
      "outputs": [],
      "stateMutability": "nonpayable",
      "type": "function"
    },
    {
      "inputs": [
        {
          "internalType": "bytes32",
          "name": "zSwap_id",
          "type": "bytes32"
        },
        {
          "internalType": "bool",
          "name": "new_allow_counter_offer",
          "type": "bool"
        }
      ],
      "name": "set_allow_counter_offer",
      "outputs": [],
      "stateMutability": "nonpayable",
      "type": "function"
    },
    {
      "inputs": [
        {
          "internalType": "address",
          "name": "owner",
          "type": "address"
        },
        {
          "internalType": "address",
          "name": "token",
          "type": "address"
        }
      ],
      "name": "allowed_ERC20",
      "outputs": [
        {
          "internalType": "uint256",
          "name": "",
          "type": "uint256"
        }
      ],
      "stateMutability": "view",
      "type": "function",
      "constant": true
    },
    {
      "inputs": [
        {
          "internalType": "address",
          "name": "nft721_address",
          "type": "address"
        },
        {
          "internalType": "uint256",
          "name": "token_id",
          "type": "uint256"
        }
      ],
      "name": "allowed_ERC721",
      "outputs": [
        {
          "internalType": "bool",
          "name": "",
          "type": "bool"
        }
      ],
      "stateMutability": "view",
      "type": "function",
      "constant": true
    },
    {
      "inputs": [
        {
          "internalType": "address",
          "name": "token_addr",
          "type": "address"
        },
        {
          "internalType": "address",
          "name": "owner",
          "type": "address"
        }
      ],
      "name": "allowed_ERC1155",
      "outputs": [
        {
          "internalType": "bool",
          "name": "",
          "type": "bool"
        }
      ],
      "stateMutability": "view",
      "type": "function",
      "constant": true
    },
    {
      "inputs": [
        {
          "internalType": "address",
          "name": "owner",
          "type": "address"
        },
        {
          "components": [
            {
              "internalType": "bytes32",
              "name": "id",
              "type": "bytes32"
            },
            {
              "internalType": "uint256",
              "name": "IERC",
              "type": "uint256"
            },
            {
              "internalType": "uint256",
              "name": "token_id",
              "type": "uint256"
            },
            {
              "internalType": "address",
              "name": "token",
              "type": "address"
            },
            {
              "internalType": "uint256",
              "name": "amount",
              "type": "uint256"
            },
            {
              "internalType": "uint256",
              "name": "created",
              "type": "uint256"
            }
          ],
          "internalType": "struct ZeOTC.Product",
          "name": "product",
          "type": "tuple"
        }
      ],
      "name": "ze_balanceOf",
      "outputs": [
        {
          "internalType": "uint256",
          "name": "",
          "type": "uint256"
        }
      ],
      "stateMutability": "view",
      "type": "function",
      "constant": true
    },
    {
      "inputs": [
        {
          "internalType": "bytes32",
          "name": "id",
          "type": "bytes32"
        }
      ],
      "name": "get_zeSwap",
      "outputs": [
        {
          "components": [
            {
              "internalType": "bytes32",
              "name": "id",
              "type": "bytes32"
            },
            {
              "internalType": "address",
              "name": "supplier",
              "type": "address"
            },
            {
              "internalType": "address",
              "name": "demander",
              "type": "address"
            },
            {
              "internalType": "uint256",
              "name": "expiration",
              "type": "uint256"
            },
            {
              "internalType": "bytes32[]",
              "name": "offers",
              "type": "bytes32[]"
            },
            {
              "internalType": "bool",
              "name": "visibility",
              "type": "bool"
            },
            {
              "internalType": "bool",
              "name": "allow_counter_offer",
              "type": "bool"
            },
            {
              "internalType": "enum ZeOTC.Status_zeSwap",
              "name": "status",
              "type": "uint8"
            },
            {
              "internalType": "uint256",
              "name": "created",
              "type": "uint256"
            }
          ],
          "internalType": "struct ZeOTC.ZeSwap",
          "name": "",
          "type": "tuple"
        }
      ],
      "stateMutability": "view",
      "type": "function",
      "constant": true
    },
    {
      "inputs": [
        {
          "internalType": "bytes32",
          "name": "id",
          "type": "bytes32"
        }
      ],
      "name": "get_offers",
      "outputs": [
        {
          "components": [
            {
              "internalType": "bytes32",
              "name": "id",
              "type": "bytes32"
            },
            {
              "internalType": "address",
              "name": "creator",
              "type": "address"
            },
            {
              "internalType": "enum ZeOTC.Status_Offer",
              "name": "status",
              "type": "uint8"
            },
            {
              "internalType": "bytes32[]",
              "name": "product_A_ids",
              "type": "bytes32[]"
            },
            {
              "internalType": "bytes32[]",
              "name": "product_B_ids",
              "type": "bytes32[]"
            },
            {
              "internalType": "uint256",
              "name": "created",
              "type": "uint256"
            }
          ],
          "internalType": "struct ZeOTC.Offer",
          "name": "",
          "type": "tuple"
        }
      ],
      "stateMutability": "view",
      "type": "function",
      "constant": true
    },
    {
      "inputs": [
        {
          "internalType": "bytes32",
          "name": "id",
          "type": "bytes32"
        }
      ],
      "name": "get_product",
      "outputs": [
        {
          "components": [
            {
              "internalType": "bytes32",
              "name": "id",
              "type": "bytes32"
            },
            {
              "internalType": "uint256",
              "name": "IERC",
              "type": "uint256"
            },
            {
              "internalType": "uint256",
              "name": "token_id",
              "type": "uint256"
            },
            {
              "internalType": "address",
              "name": "token",
              "type": "address"
            },
            {
              "internalType": "uint256",
              "name": "amount",
              "type": "uint256"
            },
            {
              "internalType": "uint256",
              "name": "created",
              "type": "uint256"
            }
          ],
          "internalType": "struct ZeOTC.Product",
          "name": "",
          "type": "tuple"
        }
      ],
      "stateMutability": "view",
      "type": "function",
      "constant": true
    },
    {
      "inputs": [],
      "name": "get_my_zeSwaps_ids",
      "outputs": [
        {
          "internalType": "bytes32[]",
          "name": "",
          "type": "bytes32[]"
        }
      ],
      "stateMutability": "view",
      "type": "function",
      "constant": true
    },
    {
      "inputs": [],
      "name": "get_zeSwap_id_list",
      "outputs": [
        {
          "internalType": "bytes32[]",
          "name": "",
          "type": "bytes32[]"
        }
      ],
      "stateMutability": "view",
      "type": "function",
      "constant": true
    },
    {
      "inputs": [
        {
          "internalType": "address",
          "name": "owner",
          "type": "address"
        },
        {
          "internalType": "address",
          "name": "token",
          "type": "address"
        },
        {
          "internalType": "uint256",
          "name": "amount",
          "type": "uint256"
        }
      ],
      "name": "is_ERC20",
      "outputs": [
        {
          "internalType": "bool",
          "name": "",
          "type": "bool"
        }
      ],
      "stateMutability": "view",
      "type": "function",
      "constant": true
    },
    {
      "inputs": [
        {
          "internalType": "address",
          "name": "token",
          "type": "address"
        }
      ],
      "name": "is_ERC721",
      "outputs": [
        {
          "internalType": "bool",
          "name": "",
          "type": "bool"
        }
      ],
      "stateMutability": "view",
      "type": "function",
      "constant": true
    },
    {
      "inputs": [
        {
          "internalType": "address",
          "name": "token",
          "type": "address"
        }
      ],
      "name": "is_ERC1155",
      "outputs": [
        {
          "internalType": "bool",
          "name": "",
          "type": "bool"
        }
      ],
      "stateMutability": "view",
      "type": "function",
      "constant": true
    }
  ],
  "bytecode": "0x60806040526000805560006009553480156200001a57600080fd5b506040516200438f3803806200438f8339810160408190526200003d9162000071565b600a805433600160a060020a03199182161790915560088054909116600160a060020a0392909216919091179055620000a3565b6000602082840312156200008457600080fd5b8151600160a060020a03811681146200009c57600080fd5b9392505050565b6142dc80620000b36000396000f3fe60806040526004361061016e5760003560e060020a90048063994681e9116100d5578063d5d88c291161008e578063ec0d3a8b11610068578063ec0d3a8b146104db578063f10f98e8146104fb578063f936b75c14610528578063fa1d672214610548576101c3565b8063d5d88c291461047b578063e2ba4e7d1461049b578063e4725ba1146104bb576101c3565b8063994681e9146103c55780639c1cce52146103f3578063a33a88e414610408578063a5dfa8741461041b578063ae07bbf21461043b578063c91188871461045b576101c3565b80635f735dd7116101275780635f735dd7146102f85780636c85b20914610318578063765f8d561461034557806378586ae7146103655780637cb97b2b1461038557806390ad6367146103a5576101c3565b80630766362c1461020e57806313311428146102395780631ee6851c146102695780632a31b23b146102965780633a22c43c146102b85780633c597ae8146102d8576101c3565b366101c35760405160e560020a62461bcd02815260206004820152601a60248201527f5a654f544320646f6573206e6f7420726563656976652045544800000000000060448201526064015b60405180910390fd5b60405160e560020a62461bcd02815260206004820152600a60248201527f66616c6c6261636b28290000000000000000000000000000000000000000000060448201526064016101ba565b34801561021a57600080fd5b50610223610568565b60405161023091906139dc565b60405180910390f35b34801561024557600080fd5b50610259610254366004613a35565b6105c9565b6040519015158152602001610230565b34801561027557600080fd5b50610289610284366004613a61565b610663565b6040516102309190613abd565b3480156102a257600080fd5b506102b66102b1366004613a61565b6106cd565b005b3480156102c457600080fd5b506102b66102d3366004613c0c565b610736565b3480156102e457600080fd5b506102596102f3366004613c79565b610842565b34801561030457600080fd5b506102b6610313366004613a61565b61090a565b34801561032457600080fd5b50610338610333366004613a61565b61096c565b6040516102309190613cea565b34801561035157600080fd5b506102b6610360366004613d73565b610ace565b34801561037157600080fd5b506102b6610380366004613da3565b610b76565b34801561039157600080fd5b506102b66103a0366004613c79565b610cfe565b3480156103b157600080fd5b506102596103c0366004613dc5565b610d8a565b3480156103d157600080fd5b506103e56103e0366004613e06565b610da3565b604051908152602001610230565b3480156103ff57600080fd5b5061022361104c565b6102b6610416366004613e3c565b6110a2565b34801561042757600080fd5b506103e5610436366004613ebc565b6115a8565b34801561044757600080fd5b506102b6610456366004613eea565b611635565b34801561046757600080fd5b506102b6610476366004613a61565b611889565b34801561048757600080fd5b506102b6610496366004613f24565b6118ee565b3480156104a757600080fd5b506102b66104b6366004613c0c565b611957565b3480156104c757600080fd5b506102b66104d6366004613a61565b611b60565b3480156104e757600080fd5b506102b66104f6366004613f49565b611b76565b34801561050757600080fd5b5061051b610516366004613a61565b61210e565b6040516102309190613fa3565b34801561053457600080fd5b50610259610543366004613c79565b612255565b34801561055457600080fd5b50610259610563366004613ebc565b6122c9565b336000908152600660209081526040918290208054835181840281018401909452808452606093928301828280156105bf57602002820191906000526020600020905b8154815260200190600101908083116105ab575b5050505050905090565b6040517f081812fc000000000000000000000000000000000000000000000000000000008152600481018290526000903090600160a060020a0385169063081812fc90602401602060405180830381865afa15801561062c573d6000803e3d6000fd5b505050506040513d601f19601f82011682018060405250810190610650919061404f565b600160a060020a03161490505b92915050565b61066b6138fa565b50600090815260076020908152604091829020825160c081018452815481526001820154928101929092526002810154928201929092526003820154600160a060020a031660608201526004820154608082015260059091015460a082015290565b6000818152600460205260409020600101548190600160a060020a0316331461070b5760405160e560020a62461bcd0281526004016101ba9061406c565b6000828152600460208190526040909120600501805462ff0000191662010000835b02179055505050565b6000838152600460205260409020600101548390600160a060020a031633146107745760405160e560020a62461bcd0281526004016101ba9061406c565b61077e3384612356565b50600061078b84846125ac565b905060005b815181101561083a57600460008781526020019081526020016000206004018282815181106107c1576107c16140a3565b602090810291909101810151825460018181018555600094855283852090910191909155888352600490915260409091200154600160a060020a0316331415610828576108288683838151811061081a5761081a6140a3565b60200260200101518761290d565b80610832816140d5565b915050610790565b505050505050565b600061084d82612a37565b506040517f01ffc9a70000000000000000000000000000000000000000000000000000000081527f80ac58cd000000000000000000000000000000000000000000000000000000006004820181905290600160a060020a038416906301ffc9a7906024015b602060405180830381865afa1580156108cf573d6000803e3d6000fd5b505050506040513d601f19601f820116820180604052508101906108f391906140f0565b156109015750600192915050565b50600092915050565b600a54600160a060020a031633146109675760405160e560020a62461bcd02815260206004820152600d60248201527f7a654f776e6572206f6e6c79210000000000000000000000000000000000000060448201526064016101ba565b600955565b6109a56040805160c081018252600080825260208201819052909182019081526020016060815260200160608152602001600081525090565b600082815260016020818152604092839020835160c0810185528154815292810154600160a060020a03811692840192909252919283019060a060020a900460ff1660038111156109f8576109f8613c96565b6003811115610a0957610a09613c96565b815260200160028201805480602002602001604051908101604052809291908181526020018280548015610a5c57602002820191906000526020600020905b815481526020019060010190808311610a48575b5050505050815260200160038201805480602002602001604051908101604052809291908181526020018280548015610ab457602002820191906000526020600020905b815481526020019060010190808311610aa0575b505050505081526020016004820154815250509050919050565b6000828152600460205260409020600101548290600160a060020a03163314610b0c5760405160e560020a62461bcd0281526004016101ba9061406c565b81600160a060020a038116610b665760405160e560020a62461bcd02815260206004820152601960248201527f307830206164647265737373206e6f7420616c6c6f776564210000000000000060448201526064016101ba565b610b708484612a9a565b50505050565b6000828152600460205260409020600101548290600160a060020a03163314610bb45760405160e560020a62461bcd0281526004016101ba9061406c565b600260008481526004602081905260409091206005015462010000900460ff1690811115610be457610be4613c96565b14610cf95760008381526005602090815260408083206004928390529220825481556001808401549082018054600160a060020a0392831673ffffffffffffffffffffffffffffffffffffffff199182161790915560028086015490840180549190931691161790556003808401549082015581830180549192610c6c92908401919061393c565b5060058281018054918301805460ff938416151560ff19821681178355835461010090819004861615150261ff001990911661ffff1990921691909117178082559154620100009081900490931692909162ff0000191690836004811115610cd657610cd6613c96565b021790555060069182015491015560008381526004602052604090206003018290555b505050565b600a54600160a060020a03163314610d5b5760405160e560020a62461bcd02815260206004820152600d60248201527f7a654f776e6572206f6e6c79210000000000000000000000000000000000000060448201526064016101ba565b600a805473ffffffffffffffffffffffffffffffffffffffff1916600160a060020a0392909216919091179055565b600081610d9785856115a8565b101590505b9392505050565b6000816020015160141415610e425760608201516040517f70a08231000000000000000000000000000000000000000000000000000000008152600160a060020a038581166004830152909116906370a0823190602401602060405180830381865afa158015610e17573d6000803e3d6000fd5b505050506040513d601f19601f82011682018060405250810190610e3b919061410d565b905061065d565b81602001516102d11415610f7c5760608201516040517f70a08231000000000000000000000000000000000000000000000000000000008152600160a060020a03858116600483015260009216906370a0823190602401602060405180830381865afa158015610eb6573d6000803e3d6000fd5b505050506040513d601f19601f82011682018060405250810190610eda919061410d565b905083600160a060020a03168360600151600160a060020a0316636352211e85604001516040518263ffffffff1660e060020a028152600401610f1f91815260200190565b602060405180830381865afa158015610f3c573d6000803e3d6000fd5b505050506040513d601f19601f82011682018060405250810190610f60919061404f565b600160a060020a03161415610f7657905061065d565b50610901565b8160200151610483141561090157606082015160408084015190517efdd58e000000000000000000000000000000000000000000000000000000008152600092600160a060020a03169162fdd58e91610fed918891600401600160a060020a03929092168252602082015260400190565b602060405180830381865afa15801561100a573d6000803e3d6000fd5b505050506040513d601f19601f8201168201806040525081019061102e919061410d565b90508260800151811061104257905061065d565b5050600092915050565b606060038054806020026020016040519081016040528092919081815260200182805480156105bf57602002820191906000526020600020908154815260200190600101908083116105ab575050505050905090565b838051600014156110c85760405160e560020a62461bcd0281526004016101ba90614126565b60005b815181101561117a576000600160a060020a03168282815181106110f1576110f16140a3565b602002602001015160600151600160a060020a031614156111275760405160e560020a62461bcd0281526004016101ba9061415b565b818181518110611139576111396140a3565b602002602001015160800151600014156111685760405160e560020a62461bcd0281526004016101ba90614192565b80611172816140d5565b9150506110cb565b50838051600014156111a15760405160e560020a62461bcd0281526004016101ba90614126565b60005b8151811015611253576000600160a060020a03168282815181106111ca576111ca6140a3565b602002602001015160600151600160a060020a031614156112005760405160e560020a62461bcd0281526004016101ba9061415b565b818181518110611212576112126140a3565b602002602001015160800151600014156112415760405160e560020a62461bcd0281526004016101ba90614192565b8061124b816140d5565b9150506111a4565b5061125e3387612356565b5060006112a787600081518110611277576112776140a3565b60200260200101516060015188600081518110611296576112966140a3565b602002602001015160800151612ad8565b6040805161012081018252828152336020820152919250600091908101600160a060020a0387166112d95760006112db565b865b600160a060020a031681526020018781526020016112f98a8a6125ac565b8152602001600160a060020a038716611313576001611316565b60005b151581526000602080830182905260408084018390524260609485015260038054600180820183557fc2575a0e9e593c00f959f8c92f12db2869c3395a3b0502d05e2516446f71f85b90910189905588855260048085529483902087518155878501519181018054600160a060020a0393841673ffffffffffffffffffffffffffffffffffffffff19918216179091559388015160028201805491909316941693909317905593850151938101939093556080840151805194955085946113e493850192919091019061398c565b5060a082015160058201805460c085015115156101000261ff00199315159390931661ffff19909116179190911780825560e0840151919062ff000019166201000083600481111561143857611438613c96565b02179055506101009190910151600690910155600082815260056020908152604091829020835181558382015160018201805473ffffffffffffffffffffffffffffffffffffffff19908116600160a060020a03938416179091559385015160028301805490951691161790925560608301516003830155608083015180518493926114cb92600485019291019061398c565b5060a082015160058201805460c085015115156101000261ff00199315159390931661ffff19909116179190911780825560e0840151919062ff000019166201000083600481111561151f5761151f613c96565b0217905550610100919091015160069182015533600090815260209182526040812080546001810182559082529181209091018390555b81608001515181101561159d5761158b838360800151838151811061157d5761157d6140a3565b60200260200101518b61290d565b80611595816140d5565b915050611556565b505050505050505050565b6040517fdd62ed3e000000000000000000000000000000000000000000000000000000008152600160a060020a0383811660048301523060248301526000919083169063dd62ed3e90604401602060405180830381865afa158015611611573d6000803e3d6000fd5b505050506040513d601f19601f82011682018060405250810190610d9c919061410d565b8260006116418261210e565b6020810151909150600160a060020a031633148061166b57506040810151600160a060020a031633145b1561183757600061167b8561096c565b60008781526004602052604090206001810154600290910154919250600160a060020a03908116911633821480156116b857506001836060015151115b156117655760005b8360600151518110156117205786846080015182815181106116e4576116e46140a3565b6020026020010151141561170e57600088815260016020526040902061170e908290600201612b4b565b80611718816140d5565b9150506116c0565b5086887f5fb2d492ca4ecf008f81bb3252bc61af16e2bea51ac6e6ea95b41a11e60484e23361174e8a610663565b60405161175c9291906141c9565b60405180910390a35b600160a060020a0381163314801561178257506001836080015151115b1561182f5760005b8360800151518110156117ea5786846080015182815181106117ae576117ae6140a3565b602002602001015114156117d85760008881526001602052604090206117d8908290600301612b4b565b806117e2816140d5565b91505061178a565b5086887f5fb2d492ca4ecf008f81bb3252bc61af16e2bea51ac6e6ea95b41a11e60484e2336118188a610663565b6040516118269291906141c9565b60405180910390a35b505050611882565b60405160e560020a62461bcd02815260206004820152601260248201527f737761702070617274696573206f6e6c7921000000000000000000000000000060448201526064016101ba565b5050505050565b6000818152600460205260409020600101548190600160a060020a031633146118c75760405160e560020a62461bcd0281526004016101ba9061406c565b600082815260046020526040902060050180546003919062ff00001916620100008361072d565b6000828152600460205260409020600101548290600160a060020a0316331461192c5760405160e560020a62461bcd0281526004016101ba9061406c565b5060009182526004602052604090912060050180549115156101000261ff0019909216919091179055565b8260006119638261210e565b6020810151909150600160a060020a031633148061198d57506040810151600160a060020a031633145b1561183757600061199d8661210e565b60c08101519091506119f45760405160e560020a62461bcd02815260206004820152601a60248201527f636f756e746572206f66666572206e6f7420616c6c6f7765642e00000000000060448201526064016101ba565b60005b8551811015611aa857858181518110611a1257611a126140a3565b602002602001015160800151611a458360200151888481518110611a3857611a386140a3565b6020026020010151610da3565b1015611a965760405160e560020a62461bcd02815260206004820152601e60248201527f537570706c69657220686173206e6f7420656e6f75676820746f6b656e73000060448201526064016101ba565b80611aa0816140d5565b9150506119f7565b50611ab33385612356565b506000611ac086866125ac565b905060005b815181101561182f5760046000898152602001908152602001600020600401828281518110611af657611af66140a3565b602090810291909101810151825460018101845560009384529190922001556040830151600160a060020a0316331415611b4e57611b4e88838381518110611b4057611b406140a3565b60200260200101518861290d565b80611b58816140d5565b915050611ac5565b611b6a8133612a9a565b611b7381612c37565b50565b6000838152600460208181526040808420815161012081018352815481526001820154600160a060020a039081168286015260028301541681840152600382015460608201529381018054835181860281018601909452808452919360808601939290830182828015611c0857602002820191906000526020600020905b815481526020019060010190808311611bf4575b5050509183525050600582015460ff80821615156020840152610100820481161515604084015260609092019162010000909104166004811115611c4e57611c4e613c96565b6004811115611c5f57611c5f613c96565b815260069190910154602091820152810151909150600160a060020a0316331480611c9657506040810151600160a060020a031633145b80611cac57506040810151600160a060020a0316155b156120c357611cd882600081518110611cc757611cc76140a3565b6020026020010151602001516133dd565b506040810151600160a060020a0316158015611d0a57508060200151600160a060020a031633600160a060020a031614155b15611d2557611d198433612a9a565b611d228461210e565b90505b6040810151600160a060020a031633148015611d43575060c0810151155b15611d935760405160e560020a62461bcd02815260206004820152601960248201527f436f756e746572206f66666572204e4f5420616c6c6f7765640000000000000060448201526064016101ba565b60008381526001602081905260408220015460a060020a900460ff166003811115611dc057611dc0613c96565b1480611df9575060016000848152600160208190526040909120015460a060020a900460ff166003811115611df757611df7613c96565b145b15612052578060400151600160a060020a031633600160a060020a03161415611e2857611e263383612356565b505b81600081518110611e3b57611e3b6140a3565b6020026020010151604001516007600084600081518110611e5e57611e5e6140a3565b60200260200101516000015181526020019081526020016000206002018190555081600081518110611e9257611e926140a3565b6020026020010151602001516007600084600081518110611eb557611eb56140a3565b60200260200101516000015181526020019081526020016000206001018190555081600081518110611ee957611ee96140a3565b6020026020010151606001516007600084600081518110611f0c57611f0c6140a3565b602002602001015160000151815260200190815260200160002060030160006101000a815481600160a060020a030219169083600160a060020a0316021790555081600081518110611f6057611f606140a3565b6020026020010151608001516007600084600081518110611f8357611f836140a3565b6020026020010151600001518152602001908152602001600020600401819055506000600167ffffffffffffffff811115611fc057611fc0613acb565b604051908082528060200260200182016040528015611ff957816020015b611fe66138fa565b815260200190600190039081611fde5790505b50905061202383600081518110612012576120126140a3565b602002602001015160000151610663565b81600081518110612036576120366140a3565b602002602001018190525061204c85858361290d565b50610b70565b60405160e560020a62461bcd02815260206004820152602b60248201527f496e697469616c20262050656e64696e675f636f6e6669726d6174696f6e732060448201527f737461747573206f6e6c7900000000000000000000000000000000000000000060648201526084016101ba565b60405160e560020a62461bcd02815260206004820152601260248201527f537761702070617274696573206f6e6c7921000000000000000000000000000060448201526064016101ba565b60408051610120810182526000808252602082018190529181018290526060808201839052608082015260a0810182905260c0810182905260e08101829052610100810191909152600082815260046020818152604092839020835161012081018552815481526001820154600160a060020a0390811682850152600283015416818601526003820154606082015292810180548551818502810185019096528086529394919360808601938301828280156121e957602002820191906000526020600020905b8154815260200190600101908083116121d5575b5050509183525050600582015460ff8082161515602084015261010082048116151560408401526060909201916201000090910416600481111561222f5761222f613c96565b600481111561224057612240613c96565b81526020016006820154815250509050919050565b600061226082612a37565b506040517f01ffc9a70000000000000000000000000000000000000000000000000000000081527fd9b67a26000000000000000000000000000000000000000000000000000000006004820181905290600160a060020a038416906301ffc9a7906024016108b2565b6040517fe985e9c5000000000000000000000000000000000000000000000000000000008152600160a060020a0382811660048301523060248301526000919084169063e985e9c590604401602060405180830381865afa158015612332573d6000803e3d6000fd5b505050506040513d601f19601f82011682018060405250810190610d9c91906140f0565b600080805b83518110156125a157838181518110612376576123766140a3565b602002602001015160200151601414156123d6576123cf858583815181106123a0576123a06140a3565b6020026020010151606001518684815181106123be576123be6140a3565b602002602001015160800151610d8a565b915061253f565b8161253f576124018482815181106123f0576123f06140a3565b602002602001015160600151613461565b6102d114156124a65761244e84828151811061241f5761241f6140a3565b60200260200101516060015185838151811061243d5761243d6140a3565b6020026020010151604001516105c9565b61249d5760405160e560020a62461bcd02815260206004820152601860248201527f4e465420455243373231206e6f7420617070726f7665642e000000000000000060448201526064016101ba565b6001915061253f565b6124bb8482815181106123f0576123f06140a3565b610483141561253f576124eb8482815181106124d9576124d96140a3565b602002602001015160600151866122c9565b61253a5760405160e560020a62461bcd02815260206004820152601960248201527f4e46542045524331313535206e6f7420617070726f7665642e0000000000000060448201526064016101ba565b600191505b8161258f5760405160e560020a62461bcd02815260206004820152601a60248201527f4e6f7420656e6f75676820746f6b656e7320617070726f76656400000000000060448201526064016101ba565b80612599816140d5565b91505061235b565b506001949350505050565b6060828051600014156125d45760405160e560020a62461bcd0281526004016101ba90614126565b60005b8151811015612686576000600160a060020a03168282815181106125fd576125fd6140a3565b602002602001015160600151600160a060020a031614156126335760405160e560020a62461bcd0281526004016101ba9061415b565b818181518110612645576126456140a3565b602002602001015160800151600014156126745760405160e560020a62461bcd0281526004016101ba90614192565b8061267e816140d5565b9150506125d7565b50828051600014156126ad5760405160e560020a62461bcd0281526004016101ba90614126565b60005b815181101561275f576000600160a060020a03168282815181106126d6576126d66140a3565b602002602001015160600151600160a060020a0316141561270c5760405160e560020a62461bcd0281526004016101ba9061415b565b81818151811061271e5761271e6140a3565b6020026020010151608001516000141561274d5760405160e560020a62461bcd0281526004016101ba90614192565b80612757816140d5565b9150506126b0565b50600061279786600081518110612778576127786140a3565b60200260200101516060015187600081518110611296576112966140a3565b6040805160c0810182528281523360208201529192506000919081018281526020016127c2896134a3565b81526020016127d0886134a3565b8152426020918201526000848152600180835260409182902084518155928401519083018054600160a060020a0390921673ffffffffffffffffffffffffffffffffffffffff1983168117825592850151949550859492909174ffffffffffffffffffffffffffffffffffffffffff19161760a060020a83600381111561285957612859613c96565b02179055506060820151805161287991600284019160209091019061398c565b506080820151805161289591600384019160209091019061398c565b5060a091909101516004909101553360009081526002602090815260408083208054600180820183559185528385200186905581518181528083019092529091828101908036833701905050905082816000815181106128f7576128f76140a3565b6020908102919091010152979650505050505050565b8260006129198261210e565b6020810151909150600160a060020a031633148061294357506040810151600160a060020a031633145b15611837576129523384612356565b5060016000858152600160208190526040909120015460a060020a900460ff16600381111561298357612983613c96565b14806129b9575060008481526001602081905260408220015460a060020a900460ff1660038111156129b7576129b7613c96565b145b15612a325760008481526001602081905260409091208101805474ff0000000000000000000000000000000000000000191660a060020a83021790555083857f234023b8129a5bc858a0e15f219f07582f20ffb4e7439230e441f653c1eb33c83386604051612a299291906141e6565b60405180910390a35b611882565b6000813b63ffffffff8116612a915760405160e560020a62461bcd02815260206004820152600f60248201527f4e6f74206120636f6e747261637421000000000000000000000000000000000060448201526064016101ba565b50600192915050565b600091825260046020526040909120600201805473ffffffffffffffffffffffffffffffffffffffff1916600160a060020a03909216919091179055565b6000338383304342612ae86136cc565b60408051600160a060020a03988916602082015296881690870152606086019490945294909116608084015260a083015260c082019290925260e08101919091526101000160405160208183030381529060405280519060200120905092915050565b80548210612b9e5760405160e560020a62461bcd02815260206004820152600d60248201527f4f7574206f6620626f756e64730000000000000000000000000000000000000060448201526064016101ba565b815b8154612bae9060019061423a565b811015612c0c5781612bc1826001614251565b81548110612bd157612bd16140a3565b9060005260206000200154828281548110612bee57612bee6140a3565b60009182526020909120015580612c04816140d5565b915050612ba0565b5080805480612c1d57612c1d614269565b600190038181906000526020600020016000905590555050565b6000612c428261210e565b9050612c4d816136e4565b612c9c5760405160e560020a62461bcd02815260206004820152601260248201527f6572726f723a2063616e6e6f742073776170000000000000000000000000000060448201526064016101ba565b60005b816080015151811015613378576000612cd483608001518381518110612cc757612cc76140a3565b602002602001015161096c565b905060005b8160600151518110156130cc576000612d0e83606001518381518110612d0157612d016140a3565b6020026020010151610663565b9050806020015160141415612e36578060800151612d34866020015183606001516115a8565b1015612daa5760405160e560020a62461bcd028152602060048201526024808201527f537570706c6965723a204e6f7420656e6f75676820746f6b656e73206170707260448201527f6f7665640000000000000000000000000000000000000000000000000000000060648201526084016101ba565b8060600151600160a060020a03166323b872dd8660200151876040015184608001516040518463ffffffff1660e060020a028152600401612ded93929190614282565b6020604051808303816000875af1158015612e0c573d6000803e3d6000fd5b505050506040513d601f19601f82011682018060405250810190612e3091906140f0565b506130b9565b612e438160600151610842565b151560011415612f4e57612e5f816060015182604001516105c9565b612ed45760405160e560020a62461bcd02815260206004820152602660248201527f537570706c6965723a204e6f7420656e6f756768204e4654283732312920617060448201527f70726f766564000000000000000000000000000000000000000000000000000060648201526084016101ba565b8060600151600160a060020a03166342842e0e8660200151876040015184604001516040518463ffffffff1660e060020a028152600401612f1793929190614282565b600060405180830381600087803b158015612f3157600080fd5b505af1158015612f45573d6000803e3d6000fd5b505050506130b9565b612f5b8160600151612255565b15156001141561306e57612f77816060015186602001516122c9565b612fec5760405160e560020a62461bcd02815260206004820152602760248201527f537570706c6965723a204e6f7420656e6f756768204e4654283131353529206160448201527f7070726f7665640000000000000000000000000000000000000000000000000060648201526084016101ba565b6060810151602086015160408088015181850151608086015192517ff242432a000000000000000000000000000000000000000000000000000000008152600160a060020a03948516600482015291841660248301526044820152606481019190915260a06084820152600060a482015291169063f242432a9060c401612f17565b60405160e560020a62461bcd02815260206004820152601f60248201527f737761703a206661696c2120636865636b2074686520746f6b656e207479700060448201526064016101ba565b50806130c4816140d5565b915050612cd9565b5060005b8160800151518110156133635760006130f883608001518381518110612d0157612d016140a3565b905080602001516014141561322057806080015161311e866040015183606001516115a8565b10156131945760405160e560020a62461bcd028152602060048201526024808201527f44656d616e6465723a204e6f7420656e6f75676820746f6b656e73206170707260448201527f6f7665640000000000000000000000000000000000000000000000000000000060648201526084016101ba565b8060600151600160a060020a03166323b872dd8660400151876020015184608001516040518463ffffffff1660e060020a0281526004016131d793929190614282565b6020604051808303816000875af11580156131f6573d6000803e3d6000fd5b505050506040513d601f19601f8201168201806040525081019061321a91906140f0565b50613350565b61322d8160600151610842565b15156001141561333857613249816060015182604001516105c9565b6132be5760405160e560020a62461bcd02815260206004820152602660248201527f44656d616e6465723a204e6f7420656e6f756768204e4654283732312920617060448201527f70726f766564000000000000000000000000000000000000000000000000000060648201526084016101ba565b8060600151600160a060020a03166342842e0e8660400151876020015184604001516040518463ffffffff1660e060020a02815260040161330193929190614282565b600060405180830381600087803b15801561331b57600080fd5b505af115801561332f573d6000803e3d6000fd5b50505050613350565b6133458160600151612255565b15156001141561306e575b508061335b816140d5565b9150506130d0565b50508080613370906140d5565b915050612c9f565b5060005b6003548110156133cd57826003828154811061339a5761339a6140a3565b906000526020600020015414156133bb576133b6816003612b4b565b6133cd565b806133c5816140d5565b91505061337c565b506133d982600261384b565b5050565b6000816102d114156133f257506102d1919050565b8161048314156134055750610483919050565b816014141561341657506014919050565b60405160e560020a62461bcd02815260206004820152601f60248201527f45524332302c2045524337323120616e642045524331313535206f6e6c79210060448201526064016101ba565b600061346c82610842565b15156001141561347f57506102d1919050565b61348882612255565b15156001141561349b5750610483919050565b506014919050565b60606000825167ffffffffffffffff8111156134c1576134c1613acb565b6040519080825280602002602001820160405280156134ea578160200160208202803683370190505b50905060005b83518110156136c55761351f84828151811061350e5761350e6140a3565b602002602001015160600151612a37565b50613535848281518110611cc757611cc76140a3565b50600061356b85838151811061354d5761354d6140a3565b602002602001015160600151868481518110611296576112966140a3565b905060006040518060c00160405280838152602001878581518110613592576135926140a3565b60200260200101516020015181526020018785815181106135b5576135b56140a3565b60200260200101516040015181526020018785815181106135d8576135d86140a3565b602002602001015160600151600160a060020a03168152602001878581518110613604576136046140a3565b6020026020010151608001518152602001428152509050806007600084815260200190815260200160002060008201518160000155602082015181600101556040820151816002015560608201518160030160006101000a815481600160a060020a030219169083600160a060020a031602179055506080820151816004015560a08201518160050155905050818484815181106136a4576136a46140a3565b602002602001018181525050505080806136bd906140d5565b9150506134f0565b5092915050565b6000805481806136db836140d5565b91905055905090565b6000808260e0015160048111156136fd576136fd613c96565b14158015613721575060018260e00151600481111561371e5761371e613c96565b14155b156137715760405160e560020a62461bcd02815260206004820152601e60248201527f63616e6e6f7420737761703a20616c72656164792066756c6c66696c6564000060448201526064016101ba565b61377e82604001516138da565b15156001148061379c575061379682602001516138da565b15156001145b156137ec5760405160e560020a62461bcd02815260206004820152601660248201527f61646472657373283029206e6f7420616c6c6f7765640000000000000000000060448201526064016101ba565b81606001514211156138435760405160e560020a62461bcd02815260206004820152600860248201527f457870697265642100000000000000000000000000000000000000000000000060448201526064016101ba565b506001919050565b8160006138578261210e565b6020810151909150600160a060020a031633148061388157506040810151600160a060020a031633145b156118375760006138918561210e565b905083600460008360000151815260200190815260200160002060050160026101000a81548160ff021916908360048111156138cf576138cf613c96565b021790555050610b70565b6000600160a060020a0382166138f257506001919050565b506000919050565b6040518060c001604052806000801916815260200160008152602001600081526020016000600160a060020a0316815260200160008152602001600081525090565b82805482825590600052602060002090810192821561397c5760005260206000209182015b8281111561397c578254825591600101919060010190613961565b506139889291506139c7565b5090565b82805482825590600052602060002090810192821561397c579160200282015b8281111561397c5782518255916020019190600101906139ac565b5b8082111561398857600081556001016139c8565b6020808252825182820181905260009190848201906040850190845b81811015613a14578351835292840192918401916001016139f8565b50909695505050505050565b600160a060020a0381168114611b7357600080fd5b60008060408385031215613a4857600080fd5b8235613a5381613a20565b946020939093013593505050565b600060208284031215613a7357600080fd5b5035919050565b805182526020810151602083015260408101516040830152600160a060020a0360608201511660608301526080810151608083015260a081015160a08301525050565b60c0810161065d8284613a7a565b60e060020a634e487b7102600052604160045260246000fd5b600060c08284031215613af657600080fd5b60405160c0810181811067ffffffffffffffff82111715613b1957613b19613acb565b80604052508091508235815260208301356020820152604083013560408201526060830135613b4781613a20565b806060830152506080830135608082015260a083013560a08201525092915050565b600082601f830112613b7a57600080fd5b8135602067ffffffffffffffff80831115613b9757613b97613acb565b604051838302603f01601f191681018281118282101715613bba57613bba613acb565b60405283815260c09384028601830193838201925087851115613bdc57600080fd5b8387015b85811015613bff57613bf28982613ae4565b8452928401928101613be0565b5090979650505050505050565b600080600060608486031215613c2157600080fd5b83359250602084013567ffffffffffffffff80821115613c4057600080fd5b613c4c87838801613b69565b93506040860135915080821115613c6257600080fd5b50613c6f86828701613b69565b9150509250925092565b600060208284031215613c8b57600080fd5b8135610d9c81613a20565b60e060020a634e487b7102600052602160045260246000fd5b600081518084526020808501945080840160005b83811015613cdf57815187529582019590820190600101613cc3565b509495945050505050565b6020815281516020820152600160a060020a0360208301511660408201526000604083015160048110613d1f57613d1f613c96565b80606084015250606083015160c06080840152613d3f60e0840182613caf565b90506080840151601f198483030160a0850152613d5c8282613caf565b91505060a084015160c08401528091505092915050565b60008060408385031215613d8657600080fd5b823591506020830135613d9881613a20565b809150509250929050565b60008060408385031215613db657600080fd5b50508035926020909101359150565b600080600060608486031215613dda57600080fd5b8335613de581613a20565b92506020840135613df581613a20565b929592945050506040919091013590565b60008060e08385031215613e1957600080fd5b8235613e2481613a20565b9150613e338460208501613ae4565b90509250929050565b60008060008060808587031215613e5257600080fd5b843567ffffffffffffffff80821115613e6a57600080fd5b613e7688838901613b69565b95506020870135915080821115613e8c57600080fd5b50613e9987828801613b69565b935050604085013591506060850135613eb181613a20565b939692955090935050565b60008060408385031215613ecf57600080fd5b8235613eda81613a20565b91506020830135613d9881613a20565b600080600060608486031215613eff57600080fd5b505081359360208301359350604090920135919050565b8015158114611b7357600080fd5b60008060408385031215613f3757600080fd5b823591506020830135613d9881613f16565b600080600060608486031215613f5e57600080fd5b8335925060208401359150604084013567ffffffffffffffff811115613f8357600080fd5b613c6f86828701613b69565b60058110613f9f57613f9f613c96565b9052565b602081528151602082015260006020830151613fca6040840182600160a060020a03169052565b506040830151600160a060020a0381166060840152506060830151608083015260808301516101208060a0850152614006610140850183613caf565b915060a085015161401b60c086018215159052565b5060c085015180151560e08601525060e085015161010061403e81870183613f8f565b959095015193019290925250919050565b60006020828403121561406157600080fd5b8151610d9c81613a20565b6020808252600d908201527f6f6e6c7920737570706c69657200000000000000000000000000000000000000604082015260600190565b60e060020a634e487b7102600052603260045260246000fd5b60e060020a634e487b7102600052601160045260246000fd5b60006000198214156140e9576140e96140bc565b5060010190565b60006020828403121561410257600080fd5b8151610d9c81613f16565b60006020828403121561411f57600080fd5b5051919050565b6020808252818101527f61746c65617374203120746f6b656e2061646472657373207265717569726564604082015260600190565b6020808252601b908201527f3078302061646472657373736573206e6f7420616c6c6f776564210000000000604082015260600190565b60208082526015908201527f3020616d6f756e74206e6f7420616c6c6f776564210000000000000000000000604082015260600190565b600160a060020a038316815260e08101610d9c6020830184613a7a565b600060408201600160a060020a03851683526020604081850152818551808452606086019150828701935060005b81811015613bff57614227838651613a7a565b9383019360c09290920191600101614214565b60008282101561424c5761424c6140bc565b500390565b60008219821115614264576142646140bc565b500190565b60e060020a634e487b7102600052603160045260246000fd5b600160a060020a03938416815291909216602082015260408101919091526060019056fea2646970667358221220df7a77fa56ef0cfc16714ba1916e649c5ad7802d12c1cfd5478c2469bc2ff8af64736f6c634300080b0033",
  "immutableReferences": {},
  "source": "// SPDX-License-Identifier: MIT\npragma solidity >=0.4.22 <0.9.0;\n\nimport \"@openzeppelin/contracts/token/ERC20/IERC20.sol\";\nimport \"@openzeppelin/contracts/token/ERC721/IERC721.sol\";\nimport \"@openzeppelin/contracts/token/ERC1155/IERC1155.sol\";\n\n\ncontract ZeOTC {\n\n\n\n\n\n\n\n\n\n\n\n  enum Status_zeSwap {\n    Open, /**0. at zeSwap creation */\n    Active, /**1. at least 1 demander */\n    Fullfilled, /**2. swapped */\n    Ended, /**3. expired */\n    Canceled /**4. supplier only */\n  }\n  \n  enum Status_Offer {\n    Initial, /**0. at offer creation */\n    Pending_confirmations, /**1. 1 offer received */\n    Accepted, /**2. received offer accepted */\n    Rejected  /**3. received offer rejected */\n  }\n\n  \n  event Offer_Status_Token_Approvement(bytes32 indexed zSwap_id, bytes32 indexed offer_id, address sender, Product[] tokens);\n  event Remove_Product(bytes32 indexed zSwap_id, bytes32 indexed offer_id, address sender, Product product);\n\n  uint256 private nonce = 0;\n\n  struct ZeSwap{\n    bytes32 id;\n    address supplier;\n    address demander;\n    uint256 expiration;\n    bytes32[] offers;\n    bool visibility;\n    bool allow_counter_offer;\n    Status_zeSwap status;\n    uint256 created;\n  }\n\n  struct Offer{ \n    bytes32 id;\n    address creator;\n    Status_Offer status;\n    bytes32[] product_A_ids;\n    bytes32[] product_B_ids;\n    uint256 created;\n  }\n  \n  mapping(bytes32=>Offer) offer_map;\n  mapping(address=>bytes32[]) my_offers;\n\n  struct Product{\n    bytes32 id;\n    uint256 IERC; \n    uint256 token_id;\n    address token; \n    uint256 amount; \n    uint256 created;\n  }\n\n\n  bytes32[] zSwap_id_list;\n  mapping(bytes32 => ZeSwap) private zeSwap_map;\n  mapping(bytes32 => ZeSwap) private zeSwap_reset_map;\n  mapping(address => bytes32[]) private my_zeSwaps;\n  \nmapping(bytes32 => Product) private product_map;\n\nIERC20 ZeVoid;\nuint256 zeFee_in_stable = 0;\naddress zeOwner;\n\n\nconstructor(address zevoid_token_addr) {\n  zeOwner = msg.sender;\n  ZeVoid = IERC20(zevoid_token_addr);\n}\n\nfunction get_nonce() private returns(uint256) {\n  return nonce++;\n}\n\n  function get_id(\n    address tokenA, uint256 amount \n    ) private returns (bytes32) {\n    return keccak256(abi.encode(\n      msg.sender, tokenA, amount, address(this), block.number, block.timestamp, get_nonce()\n    ));\n  }\n\n\n\n  function create_zeSwap(\n      Product[] memory productAs, \n      Product[] memory productBs, \n      //\n      uint256 expiration_in_UTC,\n      address demander\n    ) \n    external payable \n    not_0x0_and_0(productAs) \n    not_0x0_and_0(productBs) \n    {\n    //\n    is_approved(msg.sender, productAs); //users assets\n    //\n    bytes32 id = get_id(productAs[0].token, productAs[0].amount);\n    //\n    ZeSwap memory zeSwap = ZeSwap({\n      id: id,\n      supplier: msg.sender,\n      demander: demander != address(0) ? demander : address(0),\n      status: Status_zeSwap.Open,\n      expiration: expiration_in_UTC,\n\n      offers: create_offer(productAs, productBs),\n\n      allow_counter_offer: false,\n      visibility: demander != address(0) ? false : true,\n      created: block.timestamp\n    });\n    //\n    zSwap_id_list.push(id);\n    zeSwap_map[id] = zeSwap;\n    zeSwap_reset_map[id] = zeSwap;\n    my_zeSwaps[msg.sender].push(id);    \n    //    \n\n    //events\n    for(uint256 i=0; i < zeSwap.offers.length; i++){\n      set_offer_status_token_approvement(id, zeSwap.offers[i], productAs);\n    }\n  }\n\n\n\n  function add_counter_offer_userB(\n    bytes32 zSwap_id,\n    Product[] memory productAs, \n    Product[] memory productBs\n    ) \n    public \n    swap_parties_only(zSwap_id)\n    {\n      ZeSwap memory zSwap = get_zeSwap(zSwap_id);\n      if(zSwap.allow_counter_offer == false) revert('counter offer not allowed.');\n\n      for(uint256 i=0; i<productAs.length; i++){\n        if(ze_balanceOf(zSwap.supplier, productAs[i]) < productAs[i].amount)revert('Supplier has not enough tokens');\n      }\n\n      is_approved(msg.sender, productBs);\n      //\n      bytes32[] memory ids = create_offer(\n        productAs, \n        productBs\n      );\n      //\n      for(uint256 i=0; i<ids.length; i++){\n        zeSwap_map[zSwap_id].offers.push(ids[i]);\n        //events\n        if(zSwap.demander==msg.sender)set_offer_status_token_approvement(zSwap_id, ids[i], productBs);\n      }\n  }\n\n  \n\n  function add_offer_userA(\n    bytes32 zSwap_id, \n    Product[] memory productAs, \n    Product[] memory productBs\n    ) \n    public \n    only_zSwap_creator(zSwap_id)\n    {\n    is_approved(msg.sender, productAs); \n    //\n    bytes32[] memory ids = create_offer(productAs, productBs);\n    //\n    for(uint256 i=0; i<ids.length; i++){\n      zeSwap_map[zSwap_id].offers.push(ids[i]);\n      //\n      //events\n      if(zeSwap_map[zSwap_id].supplier==msg.sender)set_offer_status_token_approvement(zSwap_id, ids[i], productAs);\n    }\n  }  \n\n\n\n  function create_offer(Product[] memory productAs, Product[] memory productBs) private \n    not_0x0_and_0(productAs) not_0x0_and_0(productBs)\n    returns(bytes32[] memory)\n    {\n    //\n    bytes32 id = get_id(productAs[0].token, productAs[0].amount);\n    //\n    Offer memory offer = Offer({    \n      id: id,\n      creator: msg.sender,\n      status: Status_Offer.Initial,\n      //multi assets\n      product_A_ids: create_product(productAs),\n      product_B_ids: create_product(productBs),\n      created: block.timestamp\n    });\n    //\n    offer_map[id] = offer;\n    my_offers[msg.sender].push(id);    \n    //    \n    bytes32[] memory ids = new bytes32[](1);\n    ids[0] = id;\n\n    return ids;\n  }\n\n\n\n  function create_product(Product[] memory products) private returns(bytes32[] memory) {\n    \n    bytes32[] memory p_ids = new bytes32[](products.length);\n    \n    for(uint256 i=0; i<products.length; i++){\n    \n      isContract(products[i].token);\n      IERC_allowed(products[i].IERC);\n\n      bytes32 id = get_id(products[i].token, products[i].amount);\n      \n      Product memory p = Product({\n        id: id,\n        token_id: products[i].token_id,\n        IERC: products[i].IERC,\n        token: products[i].token,\n        amount: products[i].amount,\n        created: block.timestamp\n      });\n      product_map[id] = p;\n      p_ids[i] = id;\n    }\n    return p_ids;\n  }\n\n\n\nfunction accept(bytes32 zSwap_id) external{\n  set_demander(zSwap_id, msg.sender);\n  swap(zSwap_id);\n}\n\n\n  \nfunction is_0x_address(address addr) private pure returns(bool) {\n  if(addr == address(0))return true;\n  return false; \n}\n\n\nfunction can_swap(ZeSwap memory zSwap) private view returns(bool) {\n  if(zSwap.status != Status_zeSwap.Open && zSwap.status != Status_zeSwap.Active)revert('cannot swap: already fullfiled');\n  if(is_0x_address(zSwap.demander) == true || is_0x_address(zSwap.supplier) == true)revert('address(0) not allowed');\n  if(block.timestamp > zSwap.expiration) revert('Expired!');\n  return true;\n}\n\n\n\n  function swap(bytes32 zSwap_id) private {\n    ZeSwap memory zSwap = get_zeSwap(zSwap_id);\n    \n    if(can_swap(zSwap)==false)revert('error: cannot swap');\n\n    for(uint256 i=0; i < zSwap.offers.length; i++){\n      Offer memory zOffer = get_offers(zSwap.offers[i]);\n\n      for(uint256 f=0; f < zOffer.product_A_ids.length; f++){ //send to demander\n        Product memory product = get_product(zOffer.product_A_ids[f]);\n\n        if(product.IERC == 20){\n          if(allowed_ERC20(zSwap.supplier, product.token) < product.amount)revert('Supplier: Not enough tokens approved');\n          IERC20(product.token).transferFrom(zSwap.supplier, zSwap.demander, product.amount);\n\n        }else if(is_ERC721(product.token)==true){\n          if(allowed_ERC721(product.token, product.token_id) == false)revert('Supplier: Not enough NFT(721) approved');\n          IERC721(product.token).safeTransferFrom(zSwap.supplier, zSwap.demander, product.token_id);\n        \n        }else if(is_ERC1155(product.token)==true){\n          if(allowed_ERC1155(product.token, zSwap.supplier) == false)revert('Supplier: Not enough NFT(1155) approved');\n          IERC1155(product.token).safeTransferFrom(zSwap.supplier, zSwap.demander, product.token_id, product.amount, '');\n        \n        }else{\n          revert('swap: fail! check the token typ');\n        }\n      }\n\n      \n      for(uint256 j=0; j < zOffer.product_B_ids.length; j++){ //send to supplier\n        Product memory product = get_product(zOffer.product_B_ids[j]);\n        \n        if(product.IERC == 20){\n          if(allowed_ERC20(zSwap.demander, product.token) < product.amount)revert('Demander: Not enough tokens approved');\n          IERC20(product.token).transferFrom(zSwap.demander, zSwap.supplier, product.amount);\n        \n        }else if(is_ERC721(product.token)==true){\n          if(allowed_ERC721(product.token, product.token_id) == false)revert('Demander: Not enough NFT(721) approved');\n          IERC721(product.token).safeTransferFrom(zSwap.demander, zSwap.supplier, product.token_id);\n\n        }else if(is_ERC1155(product.token)==true){\n            \n        }else{\n          revert('swap: fail! check the token typ');\n        }\n      }\n    }\n\n    //update the list for performance reason\n    for(uint256 k=0; k < zSwap_id_list.length; k++){\n      if(zSwap_id_list[k] == zSwap_id){\n        remove_id_from_array_list(k, zSwap_id_list);\n        break;\n      }\n    }\n    //set the swap status\n    set_zSwap_status(zSwap_id, Status_zeSwap.Fullfilled);\n  }\n\n\n\n  function remove_id_from_array_list(uint256 index, bytes32[] storage array_list) internal {\n    if (index >= array_list.length) revert('Out of bounds');\n\n    for(uint256 i = index; i < (array_list.length - 1); i++) {\n      array_list[i] = array_list[i+1];\n    }\n    array_list.pop();\n  }\n\n\n  function remove_product(\n    bytes32 zSwap_id, \n    bytes32 offer_id, \n    bytes32 product_id\n  ) public swap_parties_only(zSwap_id){\n    \n    Offer memory offer = get_offers(offer_id);\n    address supplier = zeSwap_map[zSwap_id].supplier;\n    address demander = zeSwap_map[zSwap_id].demander;\n\n    if(supplier == msg.sender && offer.product_A_ids.length > 1){\n      for(uint256 i=0; i < offer.product_A_ids.length; i++){   \n        if(offer.product_B_ids[i] == product_id){\n          remove_id_from_array_list(i, offer_map[offer_id].product_A_ids);\n        }\n      }\n      //events\n      emit Remove_Product(zSwap_id, offer_id, msg.sender, get_product(product_id));\n    }\n\n    if(demander == msg.sender && offer.product_B_ids.length > 1){\n      for(uint256 i=0; i < offer.product_B_ids.length; i++){  \n        if(offer.product_B_ids[i] == product_id){\n          remove_id_from_array_list(i, offer_map[offer_id].product_B_ids);\n        }\n      }\n      //events\n      emit Remove_Product(zSwap_id, offer_id, msg.sender, get_product(product_id));\n    }\n  }\n\n\n\n  function which_IERC(address token) internal view returns(uint256) {\n    if(is_ERC721(token) == true){\n      return 721;\n    }else if(is_ERC1155(token) == true){\n      return 1155;\n    }else{\n      return 20;\n    }\n  }\n  \n\n\n\n  function IERC_allowed(uint256 IERC) internal pure returns(uint256) {\n    if(IERC == 721){\n      return 721;\n    }else if(IERC == 1155){\n      return 1155;\n    }else if(IERC == 20){\n      return 20;\n    }else{\n      revert('ERC20, ERC721 and ERC1155 only!');\n    }\n  }\n  \n\n  function is_approved(address sender, Product[] memory products) private view returns(bool){    \n\n    bool res = false;\n\n    for(uint256 i=0; i<products.length; i++){  \n      \n      if(products[i].IERC==20){\n        res = is_ERC20(sender, products[i].token, products[i].amount);\n\n      }else if(res==false){\n        if(which_IERC(products[i].token) == 721){\n          if(allowed_ERC721(products[i].token, products[i].token_id) == false)revert('NFT ERC721 not approved.');\n          res = true;\n\n        }else if(which_IERC(products[i].token) == 1155){\n          if(allowed_ERC1155(products[i].token, sender) == false)revert('NFT ERC1155 not approved.');\n          res = true;\n        }\n      }\n\n      if(res == false)revert('Not enough tokens approved');   \n    }\n\n    return true;\n  }\n\n\n\n\n  //SETTERS\n  function set_product(\n    bytes32 zSwap_id, \n    bytes32 offer_id, \n    Product[] memory new_products\n    ) public {\n\n    ZeSwap memory zSwap = zeSwap_map[zSwap_id];\n\n    if(\n      zSwap.supplier == msg.sender || \n      zSwap.demander == msg.sender || \n      zSwap.demander == address(0)\n    ){\n\n      IERC_allowed(new_products[0].IERC); \n\n      if(zSwap.demander == address(0) && msg.sender != zSwap.supplier){\n        set_demander(zSwap_id, msg.sender); \n        zSwap = get_zeSwap(zSwap_id);\n      }\n\n      if(zSwap.demander == msg.sender && zSwap.allow_counter_offer==false)revert('Counter offer NOT allowed');      \n    \n      if(\n        offer_map[offer_id].status == Status_Offer.Initial || \n        offer_map[offer_id].status == Status_Offer.Pending_confirmations\n      ){\n\n        if(msg.sender == zSwap.demander) is_approved(msg.sender, new_products);\n\n        //set \n        product_map[new_products[0].id].token_id = new_products[0].token_id;\n        product_map[new_products[0].id].IERC = new_products[0].IERC;\n        product_map[new_products[0].id].token = new_products[0].token;\n        product_map[new_products[0].id].amount = new_products[0].amount;\n        \n        //events\n        Product[] memory products =  new Product[](1);\n        products[0] = get_product(new_products[0].id);\n        set_offer_status_token_approvement(zSwap_id, offer_id, products);\n\n      }else{\n        revert('Initial & Pending_confirmations status only');\n      }\n    }else{\n      revert('Swap parties only!');\n    }\n  }\n\n\n  \n\n  function set_offer_status_token_approvement(\n    bytes32 zSwap_id, bytes32 offer_id,\n    Product[] memory products\n  ) swap_parties_only(zSwap_id) private{\n\n    is_approved(msg.sender, products);\n    \n    if(offer_map[offer_id].status == Status_Offer.Pending_confirmations || offer_map[offer_id].status == Status_Offer.Initial){\n      offer_map[offer_id].status = Status_Offer.Pending_confirmations;\n      //\n      emit Offer_Status_Token_Approvement(zSwap_id, offer_id, msg.sender, products);\n    }\n  }\n\n\n\n  function set_zSwap_status(bytes32 zSwap_id, Status_zeSwap new_status) swap_parties_only(zSwap_id) private{\n    ZeSwap memory zSwap = get_zeSwap(zSwap_id);\n    zeSwap_map[zSwap.id].status = new_status;\n  }\n\n\n  function set_demander(bytes32 zSwap_id, address new_demander) private{\n    zeSwap_map[zSwap_id].demander = new_demander;\n  }\n\n\n  function set_zeFee_in_stable(uint256 new_zeFee_in_stable) external only_zeOwner{\n    zeFee_in_stable = new_zeFee_in_stable;\n  }\n\n  function set_owner(address new_zeOwner) external only_zeOwner{\n    zeOwner = new_zeOwner;\n  }\n\n\n  function edit_demander_address(bytes32 zSwap_id, address new_demander) external only_zSwap_creator(zSwap_id) not_0x00(new_demander) {\n    set_demander(zSwap_id, new_demander);\n  }\n\n  function cancel_zSwap(bytes32 zSwap_id) external only_zSwap_creator(zSwap_id) {\n    zeSwap_map[zSwap_id].status = Status_zeSwap.Canceled;\n  }\n\n  function end_zSwap(bytes32 zSwap_id) external only_zSwap_creator(zSwap_id) {\n    zeSwap_map[zSwap_id].status = Status_zeSwap.Ended;\n  }\n\n  function reset_zeSwap(bytes32 zSwap_id, uint256 expiration_in_UTC) external only_zSwap_creator(zSwap_id) {\n    if(zeSwap_map[zSwap_id].status != Status_zeSwap.Fullfilled){\n      zeSwap_map[zSwap_id] = zeSwap_reset_map[zSwap_id];\n      zeSwap_map[zSwap_id].expiration = expiration_in_UTC;\n    }\n  }\n\n\n  function set_allow_counter_offer(bytes32 zSwap_id, bool new_allow_counter_offer) public only_zSwap_creator(zSwap_id){\n    zeSwap_map[zSwap_id].allow_counter_offer = new_allow_counter_offer;\n  }\n\n\n  //GETTERS\n  function allowed_ERC20(address owner, address token) public view returns(uint256){\n    return IERC20(token).allowance(owner, address(this));\n  }\n  \n  function allowed_ERC721(address nft721_address, uint256 token_id) public view returns(bool){\n    return IERC721(nft721_address).getApproved(token_id) == address(this);\n  }\n  \n  function allowed_ERC1155(address token_addr, address owner) public view returns(bool){\n    return IERC1155(token_addr).isApprovedForAll(owner, address(this));\n  }\n  \n  function ze_balanceOf(address owner, Product memory product) public view returns(uint256){\n    if(product.IERC == 20){\n      return IERC20(product.token).balanceOf(owner);\n\n    }else if(product.IERC == 721){\n      uint256 bal = IERC721(product.token).balanceOf(owner);\n      if(IERC721(product.token).ownerOf(product.token_id) == owner) return bal;\n\n    }else if(product.IERC == 1155){\n      uint256 bal = IERC1155(product.token).balanceOf(owner, product.token_id);\n      if(bal >= product.amount)return bal;\n    }\n    return 0;\n  }\n\n  function get_zeSwap(bytes32 id) public view returns(ZeSwap memory){\n    return zeSwap_map[id];\n  }\n\n  function get_offers(bytes32 id) public view returns(Offer memory){\n    return offer_map[id];\n  }\n\n  function get_product(bytes32 id) public view returns(Product memory){\n    return product_map[id];\n  }\n\n  function get_my_zeSwaps_ids() public view returns(bytes32[] memory){\n    return my_zeSwaps[msg.sender];\n  }\n\n  function get_zeSwap_id_list() public view returns(bytes32[] memory){\n    return zSwap_id_list;\n  }\n\n\n\nfunction is_ERC20(address owner, address token, uint256 amount) public view returns(bool) {\n  return allowed_ERC20(owner, token) >= amount;\n}\n\n\n  function is_ERC721(address token) public view returns(bool) {\n    isContract(token);\n    bytes4 interfaceId = type(IERC721).interfaceId;\n    if (IERC165(token).supportsInterface(interfaceId)) {\n      return true;\n    }\n    return false;\n  }\n\n\n  function is_ERC1155(address token) public view returns(bool) {    \n    isContract(token);\n    bytes4 interfaceId = type(IERC1155).interfaceId;\n    if (IERC165(token).supportsInterface(interfaceId)) {\n      return true;\n    }\n    return false;\n  }\n\n\n\n\n\n  modifier swap_parties_only(bytes32 zSwap_id){\n    ZeSwap memory zSwap = get_zeSwap(zSwap_id);\n    //if none of both exists than revert()\n    if(zSwap.supplier == msg.sender || \n      zSwap.demander == msg.sender){\n        _;\n      }else{\n        revert('swap parties only!');\n      }\n  }\n\n  \n  modifier only_offer_creator(bytes32 offer_id){\n    if(offer_map[offer_id].creator != msg.sender)revert('only_creator');\n    _;\n  }\n  \n\n  modifier only_zSwap_creator(bytes32 zSwap_id){\n    if(zeSwap_map[zSwap_id].supplier != msg.sender)revert('only supplier');\n    _;\n  }\n  \n\n  function isContract(address token) private view returns(bool) {\n    uint32 size;\n    assembly {\n      size := extcodesize(token)\n    }\n    if((size > 0) == false)revert('Not a contract!');\n    return true;\n  }\n\n  modifier not_0x0_and_0(Product[] memory products){\n    if(products.length == 0)revert('atleast 1 token address required');\n    for(uint256 i=0; i < products.length; i++){\n      if(products[i].token == address(0))revert('0x0 addressses not allowed!');\n      if(products[i].amount == 0)revert('0 amount not allowed!');\n    }\n    _;\n  }\n\n  modifier not_0x00(address addr){\n    if(addr == address(0))revert('0x0 addresss not allowed!');\n    _;\n  }\n\n  \n  modifier only_zeOwner(){\n    if(zeOwner != msg.sender)revert('zeOwner only!');\n    _;\n  }\n\n\n\n  receive() external payable{\n    revert('ZeOTC does not receive ETH');\n  }\n  fallback() external payable{\n    revert('fallback()');\n  }\n\n}\n",
  "sourcePath": "C:\\Users\\bazol\\workspace\\ZeOTC\\contracts\\ZeOTC.sol",
  "compiler": {
    "name": "solc",
    "version": "0.8.11+commit.d7f03943.Emscripten.clang"
  },
  "schemaVersion": "3.4.4",
  "updatedAt": "2022-11-11T19:09:39.197Z",
  "networkType": "ethereum",
  "devdoc": {
    "kind": "dev",
    "methods": {},
    "version": 1
  },
  "userdoc": {
    "kind": "user",
    "methods": {},
    "version": 1
  }
}